:1007AD00202020202020202020202020202020203C
:0507BD0000590053008B
:08080E00020A0000020C0001C7
:100003001207D71203B27510008F11E51145106066
:10001300F2E51164014510702DF50E750F010513FE
:10002300E51370020512AE08AF097C007D0A1205C4
:10003300688E088F09AE0EAF0F12057AED2509F50C
:1000430009EC3508F508E51164024510702DF50E2D
:10005300750F020513E51370020512AE08AF097C94
:10006300007D0A1205688E088F09AE0EAF0F1205C8
:100073007AED2509F509EC3508F508E51164034522
:1000830010702DF50E750F030513E513700205129D
:10009300AE08AF097C007D0A1205688E088F09AE91
:1000A3000EAF0F12057AED2509F509EC3508F508B1
:1000B300E51164054510702DF50E750F040513E564
:1000C3001370020512AE08AF097C007D0A120568A1
:1000D3008E088F09AE0EAF0F12057AED2509F509CB
:1000E300EC3508F508E51164064510702DF50E751D
:1000F3000F050513E51370020512AE08AF097C0066
:100103007D0A1205688E088F09AE0EAF0F12057AAD
:10011300ED2509F509EC3508F508E51164074510E7
:10012300702DF50E750F060513E51370020512AE5B
:1001330008AF097C007D0A1205688E088F09AE0E90
:10014300AF0F12057AED2509F509EC3508F508E539
:100153001164094510702DF50E750F070513E5138E
:1001630070020512AE08AF097C007D0A1205688E85
:10017300088F09AE0EAF0F12057AED2509F509ECCC
:100183003508F508E511640A4510702DF50E750F55
:10019300080513E51370020512AE08AF097C007D54
:1001A3000A1205688E088F09AE0EAF0F12057AED9D
:1001B3002509F509EC3508F508E511640B451070C0
:1001C3002DF50E750F090513E51370020512AE0820
:1001D300AF097C007D0A1205688E088F09AE0EAF49
:1001E3000F12057AED2509F509EC3508F508E51137
:1001F300640E4510702CF50EF50F0513E513700210
:100203000512AE08AF097C007D0A1205688E088FBF
:1002130009AE0EAF0F12057AED2509F509EC350885
:10022300F508E5116404451070467B2B7D017F01C1
:10023300120804751806AB0DAA0C7D037F01120783
:100243007A85080A85090BE50B250DF50DE50A35B9
:100253000CF50C7F147E001207C2E4F508F509F5CE
:1002630012F5137BFF7A0779AD7D017F02120739FF
:10027300E5116408451070407B2D7D017F01120854
:1002830004751806AB0DAA0C7D037F0112077A854E
:10029300080A85090BC3E50B950DF50DE50A950CC9
:1002A300F50CE4F508F509F512F5137BFF7A0779E8
:1002B300AD7D017F02120739E511640C45107042D0
:1002C3007B2A7D017F0112080485080A85090BAE8C
:1002D3000CAF0DAC0AAD0B1205688E0C8F0D7518A3
:1002E30006AB0DAA0C7D037F0112077AE4F508F52E
:1002F30009F512F5137BFF7A0779AD7D017F0212B1
:100303000739E5116410451070427B2F7D017F0191
:1003130012080485080A85090BAE0CAF0DAC0AADB3
:100323000B12057A8E0C8F0D751806AB0DAA0C7D7A
:10033300037F0112077AE4F508F509F512F5137B3B
:10034300FF7A0779AD7D017F02120739E511640F4A
:100353004510701C7B3D7D017F01120804E4F50804
:10036300F509751806AB0DAA0C7D017F0212077AF9
:10037300E509B44712E508B41F0D7BFF7A0779BE80
:100383007D017F01120739E50DB41D12E50CB40997
:100393000D7BFF7A0779C07D017F01120739AD1309
:0F03A300751801AB0FAA0E7F0212077A0200062F
:1007C200EF1FAC0670011E4C600A7D027CEFDCFE5E
:0407D200DDFC80ECDE
:0107D6002200
:0607EB00C2A58F80D2A719
:0807F1007F027EC7DEFEDFFC83
:0107F90022DD
:0A07FA00C2A61207EBC2A70207F126
:10075C00CFCDCFCECCCE12057A7C007D0A12057A95
:04076C00ED2430FF49
:0A077000D2A61207EBC2A70207F1A0
:10079700AE07BE0104ED148006BE0209ED243F44F6
:0607A70080FF1207FA2298
:1007D7007F381207FA7F0C1207FA7F061207FA7F93
:0407E700010207FA0A
:0A080400AC03120797AF040207705F
:060739008B148A158916DD
:10073F00120797E4FDAB14AA15A9168D82758300D5
:0C074F0012053BFF60061207700D80E9E8
:01075B00227B
:0C0706007F0AEA24FFFDE434FFFC7E00C3
:080712008E198F1A8C1B8D1C3F
:10071A007F017E00E4FBEBC3951CE51B6480F87443
:0E072A008098500AAC19AD1A1205680B80E8D1
:01073800229E
:04077A008A168B1739
:10077E00120797AA18EAD39400400D120706AC167A
:08078E00AD1712075C1A80EDA3
:010796002240
:10065B00120797C3EA64809480400B7F2B120770BC
:10066B008A228B23800E7F2D120770C3E49BF52308
:10067B00E49AF522AA21EAD39400400D120706ACA6
:09068B0022AD2312075C1A80ED78
:010694002243
:040695008A268B27FF
:10069900120797AA28EAD3940040297F1012070865
:1006A900AC26AD27CFCDCFCECCCE12057AEF540FE5
:1006B900FEC3940AEE5004243080022437FF120747
:0406C900701A80D152
:0106CD00220A
:0406CE008A2B8B2CBC
:1006D200120797AA2DEAD394004028EA24FFFDE4EA
:1006E20034FFFC7F027E00120712AC2BAD2CCFCD63
:1006F200CFCECCCE12057AEF54012430FF12077010
:030702001A80D288
:0107050022D1
:1003B200E4F5147590FFC2932097137F14FE120781
:1003C200C23097FD7F147E001207C2751401209679
:1003D200147F147E001207C23096FD7F147E001235
:1003E20007C27514052095147F147E001207C230CF
:1003F20095FD7F147E001207C27514092094147FA4
:10040200147E001207C23094FD7F147E001207C2D0
:1004120075140D7590FFC2922097147F147E0012FE
:1004220007C23097FD7F147E001207C275140220A6
:1004320096147F147E001207C23096FD7F147E0050
:100442001207C27514062095147F147E001207C28B
:100452003095FD7F147E001207C275140A20941491
:100462007F147E001207C23094FD7F147E001207B3
:10047200C275140E7590FFC2912097147F147E00EE
:100482001207C23097FD7F147E001207C275140353
:100492002096147F147E001207C23096FD7F147ED0
:1004A200001207C27514072095147F147E001207EC
:1004B200C23095FD7F147E001207C275140B209482
:1004C200147F147E001207C23094FD7F147E001246
:1004D20007C275140F7590FFC2902097147F147E87
:1004E200001207C23097FD7F147E001207C27514F6
:1004F200042096147F147E001207C23096FD7F14EA
:100502007E001207C27514082095147F147E001213
:1005120007C23095FD7F147E001207C275140C20AD
:1005220094147F147E001207C23094FD7F147E0063
:080532001207C2751410AF148A
:01053A00229E
:030000000205CF27
:0C05CF00787FE4F6D8FD75812D02061639
:10053B00BB010CE58229F582E5833AF583E0225075
:10054B0006E92582F8E622BBFE06E92582F8E222BF
:0D055B00E58229F582E5833AF583E49322D9
:10056800EF8DF0A4A8F0CF8CF0A428CE8DF0A42EA7
:02057800FE2261
:10057A00BC000BBE0029EF8DF084FFADF022E4CC65
:10058A00F875F008EF2FFFEE33FEEC33FCEE9DEC2E
:10059A00984005FCEE9DFE0FD5F0E9E4CEFD22ED74
:1005AA00F8F5F0EE8420D21CFEADF075F008EF2FBE
:1005BA00FFED33FD4007985006D5F0F222C398FDAF
:0505CA000FD5F0EA224C
:1005DB00020003E493A3F8E493A34003F68001F233
:1005EB0008DFF48029E493A3F85407240CC8C33321
:1005FB00C4540F4420C8834004F456800146F6DFF0
:10060B00E4800B010204081020408090080EE47E69
:10061B00019360BCA3FF543F30E509541FFEE493E4
:10062B00A360010ECF54C025E060A840B8E493A3AB
:10063B00FAE493A3F8E493A3C8C582C8CAC583CAD6
:10064B00F0A3C8C582C8CAC583CADFE9DEE780BE8E
:0108160000E1
:00000001FF
